{
  "address": "0xA0c8C850917baD2d67D4775124D2B7FA81014f7A",
  "abi": [
    {
      "inputs": [
        {
          "internalType": "address",
          "name": "priceFeedAddress",
          "type": "address"
        }
      ],
      "stateMutability": "nonpayable",
      "type": "constructor"
    },
    {
      "stateMutability": "payable",
      "type": "fallback"
    },
    {
      "inputs": [],
      "name": "MINIMUM_USD",
      "outputs": [
        {
          "internalType": "uint256",
          "name": "",
          "type": "uint256"
        }
      ],
      "stateMutability": "view",
      "type": "function"
    },
    {
      "inputs": [
        {
          "internalType": "address",
          "name": "",
          "type": "address"
        }
      ],
      "name": "addressToAmountFunded",
      "outputs": [
        {
          "internalType": "uint256",
          "name": "",
          "type": "uint256"
        }
      ],
      "stateMutability": "view",
      "type": "function"
    },
    {
      "inputs": [],
      "name": "fund",
      "outputs": [],
      "stateMutability": "payable",
      "type": "function"
    },
    {
      "inputs": [
        {
          "internalType": "uint256",
          "name": "",
          "type": "uint256"
        }
      ],
      "name": "funders",
      "outputs": [
        {
          "internalType": "address",
          "name": "",
          "type": "address"
        }
      ],
      "stateMutability": "view",
      "type": "function"
    },
    {
      "inputs": [],
      "name": "owner",
      "outputs": [
        {
          "internalType": "address",
          "name": "",
          "type": "address"
        }
      ],
      "stateMutability": "view",
      "type": "function"
    },
    {
      "inputs": [],
      "name": "priceFeed",
      "outputs": [
        {
          "internalType": "contract AggregatorV3Interface",
          "name": "",
          "type": "address"
        }
      ],
      "stateMutability": "view",
      "type": "function"
    },
    {
      "inputs": [],
      "name": "withdraw",
      "outputs": [],
      "stateMutability": "nonpayable",
      "type": "function"
    },
    {
      "stateMutability": "payable",
      "type": "receive"
    }
  ],
  "transactionHash": "0xb0418f246cc68382139c20ab8a402f33f3e9f3ede3def154c61faeeb29c0e45c",
  "args": [
    "0x694AA1769357215DE4FAC081bf1f309aDC325306"
  ],
  "numDeployments": 1,
  "solcInputHash": "3d75014d1f8729efd884d73379560c82",
  "bytecode": "0x608060405234801561001057600080fd5b50604051610fca380380610fca833981810160405281019061003291906100cf565b33600260006101000a81548173ffffffffffffffffffffffffffffffffffffffff021916908373ffffffffffffffffffffffffffffffffffffffff16021790555080600360006101000a81548173ffffffffffffffffffffffffffffffffffffffff021916908373ffffffffffffffffffffffffffffffffffffffff16021790555050610141565b6000815190506100c98161012a565b92915050565b6000602082840312156100e157600080fd5b60006100ef848285016100ba565b91505092915050565b60006101038261010a565b9050919050565b600073ffffffffffffffffffffffffffffffffffffffff82169050919050565b610133816100f8565b811461013e57600080fd5b50565b610e7a806101506000396000f3fe6080604052600436106100745760003560e01c8063741bef1a1161004e578063741bef1a1461010c5780638da5cb5b14610137578063b60d428814610162578063dc0d3dff1461016c57610083565b80633ccfd60b1461008d5780633e47d6f3146100a45780636b69a592146100e157610083565b36610083576100816101a9565b005b61008b6101a9565b005b34801561009957600080fd5b506100a26102e4565b005b3480156100b057600080fd5b506100cb60048036038101906100c69190610817565b61057b565b6040516100d89190610a92565b60405180910390f35b3480156100ed57600080fd5b506100f6610593565b6040516101039190610a92565b60405180910390f35b34801561011857600080fd5b506101216105a0565b60405161012e9190610a17565b60405180910390f35b34801561014357600080fd5b5061014c6105c6565b60405161015991906109fc565b60405180910390f35b61016a6101a9565b005b34801561017857600080fd5b50610193600480360381019061018e9190610840565b6105ec565b6040516101a091906109fc565b60405180910390f35b6802b5e3af16b18800006101e8600360009054906101000a900473ffffffffffffffffffffffffffffffffffffffff163461062b90919063ffffffff16565b1015610229576040517f08c379a000000000000000000000000000000000000000000000000000000000815260040161022090610a52565b60405180910390fd5b6000339080600181540180825580915050600190039060005260206000200160009091909190916101000a81548173ffffffffffffffffffffffffffffffffffffffff021916908373ffffffffffffffffffffffffffffffffffffffff16021790555034600160003373ffffffffffffffffffffffffffffffffffffffff1673ffffffffffffffffffffffffffffffffffffffff16815260200190815260200160002060008282546102db9190610ac9565b92505081905550565b600260009054906101000a900473ffffffffffffffffffffffffffffffffffffffff1673ffffffffffffffffffffffffffffffffffffffff163373ffffffffffffffffffffffffffffffffffffffff1614610374576040517f08c379a000000000000000000000000000000000000000000000000000000000815260040161036b90610a72565b60405180910390fd5b60005b6000805490508110156104455760008082815481106103bf577f4e487b7100000000000000000000000000000000000000000000000000000000600052603260045260246000fd5b9060005260206000200160009054906101000a900473ffffffffffffffffffffffffffffffffffffffff1690506000600160008373ffffffffffffffffffffffffffffffffffffffff1673ffffffffffffffffffffffffffffffffffffffff1681526020019081526020016000208190555050808061043d90610d41565b915050610377565b50600067ffffffffffffffff811115610487577f4e487b7100000000000000000000000000000000000000000000000000000000600052604160045260246000fd5b6040519080825280602002602001820160405280156104b55781602001602082028036833780820191505090505b50600090805190602001906104cb929190610707565b5060003373ffffffffffffffffffffffffffffffffffffffff16476040516104f2906109e7565b60006040518083038185875af1925050503d806000811461052f576040519150601f19603f3d011682016040523d82523d6000602084013e610534565b606091505b5050905080610578576040517f08c379a000000000000000000000000000000000000000000000000000000000815260040161056f90610a32565b60405180910390fd5b50565b60016020528060005260406000206000915090505481565b6802b5e3af16b188000081565b600360009054906101000a900473ffffffffffffffffffffffffffffffffffffffff1681565b600260009054906101000a900473ffffffffffffffffffffffffffffffffffffffff1681565b600081815481106105fc57600080fd5b906000526020600020016000915054906101000a900473ffffffffffffffffffffffffffffffffffffffff1681565b60008061063783610667565b90506000670de0b6b3a764000085836106509190610c67565b61065a9190610b1f565b9050809250505092915050565b6000808273ffffffffffffffffffffffffffffffffffffffff1663feaf968c6040518163ffffffff1660e01b815260040160a06040518083038186803b1580156106b057600080fd5b505afa1580156106c4573d6000803e3d6000fd5b505050506040513d601f19601f820116820180604052508101906106e89190610869565b5050509150506402540be400816106ff9190610b50565b915050919050565b828054828255906000526020600020908101928215610780579160200282015b8281111561077f5782518260006101000a81548173ffffffffffffffffffffffffffffffffffffffff021916908373ffffffffffffffffffffffffffffffffffffffff16021790555091602001919060010190610727565b5b50905061078d9190610791565b5090565b5b808211156107aa576000816000905550600101610792565b5090565b6000813590506107bd81610de8565b92915050565b6000815190506107d281610dff565b92915050565b6000813590506107e781610e16565b92915050565b6000815190506107fc81610e16565b92915050565b60008151905061081181610e2d565b92915050565b60006020828403121561082957600080fd5b6000610837848285016107ae565b91505092915050565b60006020828403121561085257600080fd5b6000610860848285016107d8565b91505092915050565b600080600080600060a0868803121561088157600080fd5b600061088f88828901610802565b95505060206108a0888289016107c3565b94505060406108b1888289016107ed565b93505060606108c2888289016107ed565b92505060806108d388828901610802565b9150509295509295909350565b6108e981610cc1565b82525050565b6108f881610d1d565b82525050565b600061090b600b83610ab8565b91507f43616c6c206661696c65640000000000000000000000000000000000000000006000830152602082019050919050565b600061094b600083610aad565b9150600082019050919050565b6000610965601383610ab8565b91507f4469646e27742073656e6420656e6f75676821000000000000000000000000006000830152602082019050919050565b60006109a5601483610ab8565b91507f53656e646572206973206e6f74206f776e6572210000000000000000000000006000830152602082019050919050565b6109e181610cfd565b82525050565b60006109f28261093e565b9150819050919050565b6000602082019050610a1160008301846108e0565b92915050565b6000602082019050610a2c60008301846108ef565b92915050565b60006020820190508181036000830152610a4b816108fe565b9050919050565b60006020820190508181036000830152610a6b81610958565b9050919050565b60006020820190508181036000830152610a8b81610998565b9050919050565b6000602082019050610aa760008301846109d8565b92915050565b600081905092915050565b600082825260208201905092915050565b6000610ad482610cfd565b9150610adf83610cfd565b9250827fffffffffffffffffffffffffffffffffffffffffffffffffffffffffffffffff03821115610b1457610b13610d8a565b5b828201905092915050565b6000610b2a82610cfd565b9150610b3583610cfd565b925082610b4557610b44610db9565b5b828204905092915050565b6000610b5b82610cd3565b9150610b6683610cd3565b9250827f7fffffffffffffffffffffffffffffffffffffffffffffffffffffffffffffff0482116000841360008413161615610ba557610ba4610d8a565b5b817f80000000000000000000000000000000000000000000000000000000000000000583126000841260008413161615610be257610be1610d8a565b5b827f80000000000000000000000000000000000000000000000000000000000000000582126000841360008412161615610c1f57610c1e610d8a565b5b827f7fffffffffffffffffffffffffffffffffffffffffffffffffffffffffffffff0582126000841260008412161615610c5c57610c5b610d8a565b5b828202905092915050565b6000610c7282610cfd565b9150610c7d83610cfd565b9250817fffffffffffffffffffffffffffffffffffffffffffffffffffffffffffffffff0483118215151615610cb657610cb5610d8a565b5b828202905092915050565b6000610ccc82610cdd565b9050919050565b6000819050919050565b600073ffffffffffffffffffffffffffffffffffffffff82169050919050565b6000819050919050565b600069ffffffffffffffffffff82169050919050565b6000610d2882610d2f565b9050919050565b6000610d3a82610cdd565b9050919050565b6000610d4c82610cfd565b91507fffffffffffffffffffffffffffffffffffffffffffffffffffffffffffffffff821415610d7f57610d7e610d8a565b5b600182019050919050565b7f4e487b7100000000000000000000000000000000000000000000000000000000600052601160045260246000fd5b7f4e487b7100000000000000000000000000000000000000000000000000000000600052601260045260246000fd5b610df181610cc1565b8114610dfc57600080fd5b50565b610e0881610cd3565b8114610e1357600080fd5b50565b610e1f81610cfd565b8114610e2a57600080fd5b50565b610e3681610d07565b8114610e4157600080fd5b5056fea2646970667358221220537777eca152d1f2b5f3c564f7eef6d027c2087b018bb4e502c12e6dec855b5f64736f6c63430008000033",
  "devdoc": {
    "kind": "dev",
    "methods": {},
    "version": 1
  },
  "userdoc": {
    "kind": "user",
    "methods": {},
    "version": 1
  },
  "storageLayout": {
    "storage": [
      {
        "astId": 59,
        "contract": "contracts/FundMe.sol:FundMe",
        "label": "funders",
        "offset": 0,
        "slot": "0",
        "type": "t_array(t_address)dyn_storage"
      },
      {
        "astId": 63,
        "contract": "contracts/FundMe.sol:FundMe",
        "label": "addressToAmountFunded",
        "offset": 0,
        "slot": "1",
        "type": "t_mapping(t_address,t_uint256)"
      },
      {
        "astId": 65,
        "contract": "contracts/FundMe.sol:FundMe",
        "label": "owner",
        "offset": 0,
        "slot": "2",
        "type": "t_address"
      },
      {
        "astId": 68,
        "contract": "contracts/FundMe.sol:FundMe",
        "label": "priceFeed",
        "offset": 0,
        "slot": "3",
        "type": "t_contract(AggregatorV3Interface)45"
      }
    ],
    "types": {
      "t_address": {
        "encoding": "inplace",
        "label": "address",
        "numberOfBytes": "20"
      },
      "t_array(t_address)dyn_storage": {
        "base": "t_address",
        "encoding": "dynamic_array",
        "label": "address[]",
        "numberOfBytes": "32"
      },
      "t_contract(AggregatorV3Interface)45": {
        "encoding": "inplace",
        "label": "contract AggregatorV3Interface",
        "numberOfBytes": "20"
      },
      "t_mapping(t_address,t_uint256)": {
        "encoding": "mapping",
        "key": "t_address",
        "label": "mapping(address => uint256)",
        "numberOfBytes": "32",
        "value": "t_uint256"
      },
      "t_uint256": {
        "encoding": "inplace",
        "label": "uint256",
        "numberOfBytes": "32"
      }
    }
  }
}